:100000000C942A000C94F2000C9458010C94BE013C
:100010000C9447000C9447000C9447000C94470044
:100020000C9447000C9447000C9466000C94470015
:100030000C9447000C9447000C9447000C94470024
:100040000C9447000C9447000C9447000C94470014
:100050000C94470011241FBECFE5D8E0DEBFCDBF12
:1000600011E0A0E6B0E0E0E1F7E002C005900D92FB
:10007000AA36B107D9F711E0AAE6B1E001C01D9296
:10008000AE36B107E1F70E94E2020C9486030C94AD
:100090000000DF93CF93CDB7DEB7AFE5B0E0EFE57B
:1000A000F0E0808180688C93A9E5B0E0E9E5F0E0BC
:1000B000808182608C93E3E5F0E08AE08083ECE568
:1000C000F0E084E68083CF91DF9108951F920F9234
:1000D0000FB60F9211242F933F934F935F936F931B
:1000E0007F938F939F93AF93BF93EF93FF93DF9390
:1000F000CF9300D0CDB7DEB780916A0190916B01AC
:10010000019690936B0180936A0180916A019091AE
:100110006B0125E780339207A1F580E090E00E9413
:10012000A70280936D0180916D01282F30E084EF4C
:1001300091E0AC01249FC001259F900D349F900D4C
:1001400011249A83898389819A81992334F429819E
:100150003A8121503F4F3A83298349815A81852F23
:10016000992787FD9A9580936C0181E990E00E9420
:10017000690280916C010E94400210926B01109202
:100180006A010F900F90CF91DF91FF91EF91BF9196
:10019000AF919F918F917F916F915F914F913F911F
:1001A0002F910F900FBE0F901F901895DF93CF9354
:1001B000CDB7DEB7AFE5B0E0EFE5F0E08081806875
:1001C0008C93ABE5B0E0EBE5F0E0808180648C934C
:1001D000A5E5B0E0E5E5F0E0808181608C93CF910A
:1001E000DF9108951F920F920FB60F9211242F9353
:1001F0003F934F935F936F937F938F939F93AF93AF
:10020000BF93EF93FF93DF93CF93CDB7DEB7A2E316
:10021000B0E0E2E3F0E0908180E189278C93E2E3B3
:10022000F0E08081882F90E080719070009749F015
:1002300080EA90E00E94690286EB90E00E946902E9
:1002400008C080EA90E00E9469028DEC90E00E9474
:100250006902CF91DF91FF91EF91BF91AF919F9193
:100260008F917F916F915F914F913F912F910F905F
:100270000FBE0F901F901895DF93CF93CDB7DEB7C9
:10028000AFE5B0E0EFE5F0E0808180688C93ABE50E
:10029000B0E0EBE5F0E0808180688C93A5E5B0E00C
:1002A000E5E5F0E0808184608C93CF91DF91089543
:1002B0001F920F920FB60F9211242F933F934F93DB
:1002C0005F936F937F938F939F93AF93BF93EF93BE
:1002D000FF93DF93CF93CDB7DEB7A2E3B0E0E2E3C5
:1002E000F0E0908180E289278C93E2E3F0E0808166
:1002F000882F90E080729070009749F085EE90E032
:100300000E9469028AEF90E00E94690208C085EEAF
:1003100090E00E94690280E191E00E946902CF9121
:10032000DF91FF91EF91BF91AF919F918F917F915D
:100330006F915F914F913F912F910F900FBE0F9052
:100340001F901895DF93CF93CDB7DEB7AFE5B0E040
:10035000EFE5F0E0808180688C93ABE5B0E0EBE501
:10036000F0E0808180628C93A4E5B0E0E4E5F0E009
:1003700080818F7B8C93CF91DF9108951F920F9294
:100380000FB60F9211242F933F934F935F936F9368
:100390007F938F939F93AF93BF93EF93FF93DF93DD
:1003A000CF93CDB7DEB7A2E3B0E0E2E3F0E0908117
:1003B00080E489278C93E2E3F0E08081882F90E04D
:1003C00080749070009749F087E291E00E94690282
:1003D0008CE391E00E94690208C087E291E00E94EC
:1003E000690282E591E00E946902CF91DF91FF915D
:1003F000EF91BF91AF919F918F917F916F915F919D
:100400004F913F912F910F900FBE0F901F90189515
:10041000DF93CF93CDB7DEB7A1E3B0E0E1E3F0E047
:10042000808182608C93A1E3B0E0E1E3F0E0808121
:100430008E7F8C93AAE2B0E0EAE2F0E080818860EF
:100440008C93AAE2B0E0EAE2F0E0808180618C93D4
:10045000A0E4B0E0E0E4F0E0808182608C93A0E46E
:10046000B0E0E0E4F0E0808184608C93E9E2F0E0C9
:1004700083E38083E0E4F0E01082CF91DF91089580
:10048000DF93CF930F92CDB7DEB78983EBE2F0E035
:100490008081829586958770882F90E0817090701A
:1004A0000097A1F3ECE2F0E0898180830F90CF9177
:1004B000DF910895DF93CF93CDB7DEB7EBE2F0E0A5
:1004C00080818823DCF7ECE2F0E08081CF91DF913E
:1004D0000895DF93CF9300D00F92CDB7DEB79B8303
:1004E0008A8319820EC08981282F30E08A819B81FE
:1004F000FC01E20FF31F80810E94400289818F5F1F
:1005000089838981282F30E08A819B81FC01E20F59
:10051000F31F8081882339F70F900F900F90CF91B0
:10052000DF910895DF93CF93CDB7DEB7A7E2B0E0B8
:10053000E7E2F0E0808180668C93A6E2B0E0E6E23C
:10054000F0E0808184688C93CF91DF910895DF93F0
:10055000CF9300D0CDB7DEB789838981883058F535
:10056000A7E2B0E0E7E2F0E08081807E8C93A7E232
:10057000B0E0E7E2F0E090818981892B8C93A6E2DC
:10058000B0E0E6E2F0E0808180648C93E6E2F0E0A7
:100590008081882F90E0807190700097B9F3A6E277
:1005A000B0E0E6E2F0E0808180618C93E5E2F0E08B
:1005B00080818A8301C01A828A810F900F90CF9127
:1005C000DF910895DF93CF93CDB7DEB70E94080285
:1005D0000E949202ABE3B0E0EBE3F0E080818E7F1B
:1005E0008C930E94490080E00E94FD0281E00E94FD
:1005F000FD0282E00E94FD02FFCFDF93CF93CDB7D3
:10060000DEB7E7970FB6F894DEBF0FBECDBF8AAB5B
:10061000CE0101969CAB8BABE0E6F0E0FEABEDAB20
:10062000F1E3FFABEDA9FEA900808DA99EA901967B
:100630009EAB8DABEBA9FCA900828BA99CA901966E
:100640009CAB8BAB9FA991509FABEFA9EE2351F7C9
:100650008AA98823C1F4A1E3B0E0E1E3F0E080815E
:100660008B7F8C93A2E3B0E0E2E3F0E080818460D2
:100670008C93A1E3B0E0E1E3F0E0808180618C93B2
:100680000E94D6003AC08AA98130C1F4A1E3B0E04B
:10069000E1E3F0E08081877F8C93A2E3B0E0E2E3C6
:1006A000F0E0808188608C93A1E3B0E0E1E3F0E0CA
:1006B000808180628C930E943C011FC08AA9823095
:1006C000C1F4A7E3B0E0E7E3F0E080818B7F8C9397
:1006D000A8E3B0E0E8E3F0E0808184608C93A1E3DC
:1006E000B0E0E1E3F0E0808180648C930E94A2019D
:1006F00004C0CE0101960E946902E7960FB6F894F5
:10070000DEBF0FBECDBFCF91DF910895F894FFCF2C
:100710004572726F72203A2043686F6F7365206A6A
:100720007573742066726F6D203020746F203220D4
:100730006F6E2058494F542066756E6374696F6EF2
:100740000054656D7065726174757265203A2000A1
:1007500020537769746368205A45524F2050726560
:10076000737365642000204C4544205A45524F2045
:10077000537461747573203A204F4E2000204C450D
:1007800044205A45524F20537461747573203A20A7
:100790004F4646200020537769746368204F4E45CA
:1007A00020507265737365642000204C4544204FCF
:1007B0004E4520537461747573203A204F4E2000CB
:1007C000204C4544204F4E4520537461747573206E
:1007D0003A204F46462000205377697463682054BE
:1007E0004F5720507265737365642000204C454458
:1007F00020544F5720537461747573203A204F4E24
:100800002000204C454420544F5720537461747588
:0A08100073203A204F4646200000F6
:00000001FF
